{
  "contractName": "GuiaDoMochileiroDasGalaxias",
  "abi": [
    {
      "inputs": [],
      "payable": false,
      "stateMutability": "nonpayable",
      "type": "constructor"
    },
    {
      "anonymous": false,
      "inputs": [
        {
          "indexed": false,
          "internalType": "uint256",
          "name": "id",
          "type": "uint256"
        },
        {
          "indexed": false,
          "internalType": "string",
          "name": "author",
          "type": "string"
        },
        {
          "indexed": false,
          "internalType": "string",
          "name": "description",
          "type": "string"
        },
        {
          "indexed": false,
          "internalType": "address",
          "name": "owner",
          "type": "address"
        }
      ],
      "name": "TipCreated",
      "type": "event"
    },
    {
      "constant": true,
      "inputs": [],
      "name": "appName",
      "outputs": [
        {
          "internalType": "string",
          "name": "",
          "type": "string"
        }
      ],
      "payable": false,
      "stateMutability": "view",
      "type": "function"
    },
    {
      "constant": true,
      "inputs": [],
      "name": "tipCount",
      "outputs": [
        {
          "internalType": "uint256",
          "name": "",
          "type": "uint256"
        }
      ],
      "payable": false,
      "stateMutability": "view",
      "type": "function"
    },
    {
      "constant": true,
      "inputs": [
        {
          "internalType": "uint256",
          "name": "",
          "type": "uint256"
        }
      ],
      "name": "tips",
      "outputs": [
        {
          "internalType": "uint256",
          "name": "id",
          "type": "uint256"
        },
        {
          "internalType": "string",
          "name": "author",
          "type": "string"
        },
        {
          "internalType": "string",
          "name": "description",
          "type": "string"
        },
        {
          "internalType": "address",
          "name": "owner",
          "type": "address"
        }
      ],
      "payable": false,
      "stateMutability": "view",
      "type": "function"
    },
    {
      "constant": false,
      "inputs": [
        {
          "internalType": "string",
          "name": "_author",
          "type": "string"
        },
        {
          "internalType": "string",
          "name": "_description",
          "type": "string"
        }
      ],
      "name": "createTip",
      "outputs": [],
      "payable": false,
      "stateMutability": "nonpayable",
      "type": "function"
    }
  ],
  "bytecode": "0x6080604052600060015534801561001557600080fd5b506040518060600160405280602881526020016109e2602891396000908051906020019061004492919061004a565b506100ef565b828054600181600116156101000203166002900490600052602060002090601f016020900481019282601f1061008b57805160ff19168380011785556100b9565b828001600101855582156100b9579182015b828111156100b857825182559160200191906001019061009d565b5b5090506100c691906100ca565b5090565b6100ec91905b808211156100e85760008160009055506001016100d0565b5090565b90565b6108e4806100fe6000396000f3fe608060405234801561001057600080fd5b506004361061004c5760003560e01c80630c97282c1461005157806348917cd3146100d4578063a5c68c5914610226578063e31e9c9014610373575b600080fd5b610059610391565b6040518080602001828103825283818151815260200191508051906020019080838360005b8381101561009957808201518184015260208101905061007e565b50505050905090810190601f1680156100c65780820380516001836020036101000a031916815260200191505b509250505060405180910390f35b610224600480360360408110156100ea57600080fd5b810190808035906020019064010000000081111561010757600080fd5b82018360208201111561011957600080fd5b8035906020019184600183028401116401000000008311171561013b57600080fd5b91908080601f016020809104026020016040519081016040528093929190818152602001838380828437600081840152601f19601f8201169050808301925050505050505091929192908035906020019064010000000081111561019e57600080fd5b8201836020820111156101b057600080fd5b803590602001918460018302840111640100000000831117156101d257600080fd5b91908080601f016020809104026020016040519081016040528093929190818152602001838380828437600081840152601f19601f82011690508083019250505050505050919291929050505061042f565b005b6102526004803603602081101561023c57600080fd5b8101908080359060200190929190505050610684565b6040518085815260200180602001806020018473ffffffffffffffffffffffffffffffffffffffff1673ffffffffffffffffffffffffffffffffffffffff168152602001838103835286818151815260200191508051906020019080838360005b838110156102ce5780820151818401526020810190506102b3565b50505050905090810190601f1680156102fb5780820380516001836020036101000a031916815260200191505b50838103825285818151815260200191508051906020019080838360005b83811015610334578082015181840152602081019050610319565b50505050905090810190601f1680156103615780820380516001836020036101000a031916815260200191505b50965050505050505060405180910390f35b61037b610804565b6040518082815260200191505060405180910390f35b60008054600181600116156101000203166002900480601f0160208091040260200160405190810160405280929190818152602001828054600181600116156101000203166002900480156104275780601f106103fc57610100808354040283529160200191610427565b820191906000526020600020905b81548152906001019060200180831161040a57829003601f168201915b505050505081565b600082511161043d57600080fd5b600081511161044b57600080fd5b600160008154809291906001019190505550604051806080016040528060015481526020018381526020018281526020013373ffffffffffffffffffffffffffffffffffffffff168152506002600060015481526020019081526020016000206000820151816000015560208201518160010190805190602001906104d192919061080a565b5060408201518160020190805190602001906104ee92919061080a565b5060608201518160030160006101000a81548173ffffffffffffffffffffffffffffffffffffffff021916908373ffffffffffffffffffffffffffffffffffffffff1602179055509050507f35aa9674e90ab7441b4693ed46f030d080f10a0dc17b5d11daac56626556e7166001548383336040518085815260200180602001806020018473ffffffffffffffffffffffffffffffffffffffff1673ffffffffffffffffffffffffffffffffffffffff168152602001838103835286818151815260200191508051906020019080838360005b838110156105dc5780820151818401526020810190506105c1565b50505050905090810190601f1680156106095780820380516001836020036101000a031916815260200191505b50838103825285818151815260200191508051906020019080838360005b83811015610642578082015181840152602081019050610627565b50505050905090810190601f16801561066f5780820380516001836020036101000a031916815260200191505b50965050505050505060405180910390a15050565b6002602052806000526040600020600091509050806000015490806001018054600181600116156101000203166002900480601f0160208091040260200160405190810160405280929190818152602001828054600181600116156101000203166002900480156107365780601f1061070b57610100808354040283529160200191610736565b820191906000526020600020905b81548152906001019060200180831161071957829003601f168201915b505050505090806002018054600181600116156101000203166002900480601f0160208091040260200160405190810160405280929190818152602001828054600181600116156101000203166002900480156107d45780601f106107a9576101008083540402835291602001916107d4565b820191906000526020600020905b8154815290600101906020018083116107b757829003601f168201915b5050505050908060030160009054906101000a900473ffffffffffffffffffffffffffffffffffffffff16905084565b60015481565b828054600181600116156101000203166002900490600052602060002090601f016020900481019282601f1061084b57805160ff1916838001178555610879565b82800160010185558215610879579182015b8281111561087857825182559160200191906001019061085d565b5b509050610886919061088a565b5090565b6108ac91905b808211156108a8576000816000905550600101610890565b5090565b9056fea265627a7a7231582058b9936a882fdc645a80aeb37cbfa38d1cbb92b53ea5e0f5a34e0163fe44378764736f6c6343000510003244617070202d204f204775696120446f204d6f6368696c6569726f204461732047616c6178696173",
  "source": "pragma solidity ^0.5.0;\r\n\r\ncontract GuiaDoMochileiroDasGalaxias {\r\n    string public appName;\r\n    uint public tipCount = 0;\r\n    mapping(uint => Tip) public tips;\r\n\r\n    struct Tip {\r\n        uint id;\r\n        string author;\r\n        string description;\r\n        address owner;\r\n    }\r\n\r\n    event TipCreated(\r\n        uint id,\r\n        string author,\r\n        string description,\r\n        address owner\r\n    );\r\n\r\n    constructor() public {\r\n        appName = \"Dapp - O Guia Do Mochileiro Das Galaxias\";\r\n    }\r\n\r\n    function createTip(string memory _author, string memory _description) public {\r\n        // Require a valid author name\r\n        require(bytes(_author).length > 0);\r\n        // Require a valid description\r\n        require(bytes(_description).length > 0);\r\n        // Increment tips count\r\n        tipCount ++;\r\n        // Create the tip\r\n        tips[tipCount] = Tip(tipCount, _author, _description, msg.sender);\r\n        // Trigger an event\r\n        emit TipCreated(tipCount, _author, _description, msg.sender);\r\n    }\r\n}\r\n",
  "sourcePath": "J:\\Projetos\\aula-08082022\\fiap-aula-demo-dapp\\src\\contracts\\GuiaDoMochileiroDasGalaxias.sol",
  "compiler": {
    "name": "solc",
    "version": "0.5.16+commit.9c3226ce.Emscripten.clang"
  },
  "schemaVersion": "3.4.8",
  "updatedAt": "2022-08-08T20:57:40.347Z",
  "networkType": "ethereum",
  "devdoc": {
    "methods": {}
  },
  "userdoc": {
    "methods": {}
  }
}